:020000040000FA
:100000009E01B12890009F1727308F0010301420D8
:1000100003308F00E83014208F01643014208F01EA
:100020000A30142010081F288E0011088D001008B7
:100030008C0090200C08031D9F139F1B0800303E6E
:1000400093008611861006118316861186100611FC
:100050000F308605831213089E184B283A308D0006
:10006000FC307C20333092005F2010308D006830EF
:100070007C205F2064307B20223092005F2028307B
:100080004A200C304A2001304A2006304A209E1473
:1000900013084B281E1492001E1C59288610033C7E
:1000A000031C5E285E2007308D00D0307C200314B6
:1000B00008001E14FE3C0319AC2886141E1C1E10DA
:1000C00086150F3086051208F03986048611920EC7
:1000D0001E185F2832307B20031408008F018E0029
:1000E000FF308E07031C8F07031CAC2803308D00E4
:1000F000DF307C2070288D01E83E8C008D09FC30BB
:10010000031C85288C07031882288C0764008D0F38
:1001100082280C188B288C1C8F2800008F28080040
:1001200091019001103092000D0D900D910D0E086F
:1001300090020F08031C0F0F91020318A6280E0847
:1001400090070F0803180F0F910703108C0D8D0DEA
:10015000920B94280C08AC288313031383126400B9
:1001600008008316850186018312A401A5010611EA
:10017000C8306E20FE30202001302020FE302020AC
:10018000023020204E3020204530202055302020C5
:100190002030202045302020453020204D302020A8
:1001A000FE302020C03020202508910024080220A5
:0C01B0000A306E20A40A0319A50ABA2820
:02400E00FD3F74
:00000001FF
